{
  "abi": [
    {
      "inputs": [],
      "stateMutability": "nonpayable",
      "type": "constructor"
    },
    {
      "anonymous": false,
      "inputs": [
        {
          "indexed": true,
          "internalType": "address",
          "name": "player",
          "type": "address"
        },
        {
          "indexed": false,
          "internalType": "uint256",
          "name": "result",
          "type": "uint256"
        },
        {
          "indexed": false,
          "internalType": "uint256",
          "name": "winnings",
          "type": "uint256"
        }
      ],
      "name": "SpinResult",
      "type": "event"
    },
    {
      "inputs": [],
      "name": "BET_AMOUNT",
      "outputs": [
        {
          "internalType": "uint256",
          "name": "",
          "type": "uint256"
        }
      ],
      "stateMutability": "view",
      "type": "function"
    },
    {
      "inputs": [],
      "name": "owner",
      "outputs": [
        {
          "internalType": "address",
          "name": "",
          "type": "address"
        }
      ],
      "stateMutability": "view",
      "type": "function"
    },
    {
      "inputs": [],
      "name": "randomNumber",
      "outputs": [
        {
          "internalType": "uint256",
          "name": "",
          "type": "uint256"
        }
      ],
      "stateMutability": "view",
      "type": "function"
    },
    {
      "inputs": [],
      "name": "spin",
      "outputs": [],
      "stateMutability": "payable",
      "type": "function"
    },
    {
      "inputs": [],
      "name": "withdraw",
      "outputs": [],
      "stateMutability": "nonpayable",
      "type": "function"
    },
    {
      "stateMutability": "payable",
      "type": "receive"
    }
  ],
  "devdoc": {
    "kind": "dev",
    "methods": {},
    "version": 1
  },
  "evm": {
    "assembly": "    /* \"Slot.sol\":59:1173  contract Slot {... */\n  mstore(0x40, 0x80)\n    /* \"Slot.sol\":273:322  constructor() {... */\n  callvalue\n  dup1\n  iszero\n  tag_1\n  jumpi\n  0x00\n  dup1\n  revert\ntag_1:\n  pop\n    /* \"Slot.sol\":305:315  msg.sender */\n  caller\n    /* \"Slot.sol\":297:302  owner */\n  0x00\n  dup1\n    /* \"Slot.sol\":297:315  owner = msg.sender */\n  0x0100\n  exp\n  dup2\n  sload\n  dup2\n  0xffffffffffffffffffffffffffffffffffffffff\n  mul\n  not\n  and\n  swap1\n  dup4\n  0xffffffffffffffffffffffffffffffffffffffff\n  and\n  mul\n  or\n  swap1\n  sstore\n  pop\n    /* \"Slot.sol\":59:1173  contract Slot {... */\n  dataSize(sub_0)\n  dup1\n  dataOffset(sub_0)\n  0x00\n  codecopy\n  0x00\n  return\nstop\n\nsub_0: assembly {\n        /* \"Slot.sol\":59:1173  contract Slot {... */\n      mstore(0x40, 0x80)\n      jumpi(tag_1, lt(calldatasize, 0x04))\n      shr(0xe0, calldataload(0x00))\n      dup1\n      0x3ccfd60b\n      eq\n      tag_3\n      jumpi\n      dup1\n      0x3f9326af\n      eq\n      tag_4\n      jumpi\n      dup1\n      0x8da5cb5b\n      eq\n      tag_5\n      jumpi\n      dup1\n      0xccbac9f5\n      eq\n      tag_6\n      jumpi\n      dup1\n      0xf0acd7d5\n      eq\n      tag_7\n      jumpi\n      jump(tag_2)\n    tag_1:\n      jumpi(tag_2, calldatasize)\n      stop\n    tag_2:\n      0x00\n      dup1\n      revert\n        /* \"Slot.sol\":977:1136  function withdraw() public {... */\n    tag_3:\n      callvalue\n      dup1\n      iszero\n      tag_10\n      jumpi\n      0x00\n      dup1\n      revert\n    tag_10:\n      pop\n      tag_11\n      tag_12\n      jump\t// in\n    tag_11:\n      stop\n        /* \"Slot.sol\":105:152  uint256 public constant BET_AMOUNT = 0.01 ether */\n    tag_4:\n      callvalue\n      dup1\n      iszero\n      tag_13\n      jumpi\n      0x00\n      dup1\n      revert\n    tag_13:\n      pop\n      tag_14\n      tag_15\n      jump\t// in\n    tag_14:\n      mload(0x40)\n      tag_16\n      swap2\n      swap1\n      tag_17\n      jump\t// in\n    tag_16:\n      mload(0x40)\n      dup1\n      swap2\n      sub\n      swap1\n      return\n        /* \"Slot.sol\":79:99  address public owner */\n    tag_5:\n      callvalue\n      dup1\n      iszero\n      tag_18\n      jumpi\n      0x00\n      dup1\n      revert\n    tag_18:\n      pop\n      tag_19\n      tag_20\n      jump\t// in\n    tag_19:\n      mload(0x40)\n      tag_21\n      swap2\n      swap1\n      tag_22\n      jump\t// in\n    tag_21:\n      mload(0x40)\n      dup1\n      swap2\n      sub\n      swap1\n      return\n        /* \"Slot.sol\":158:185  uint256 public randomNumber */\n    tag_6:\n      callvalue\n      dup1\n      iszero\n      tag_23\n      jumpi\n      0x00\n      dup1\n      revert\n    tag_23:\n      pop\n      tag_24\n      tag_25\n      jump\t// in\n    tag_24:\n      mload(0x40)\n      tag_26\n      swap2\n      swap1\n      tag_17\n      jump\t// in\n    tag_26:\n      mload(0x40)\n      dup1\n      swap2\n      sub\n      swap1\n      return\n        /* \"Slot.sol\":328:794  function spin() public payable {... */\n    tag_7:\n      tag_27\n      tag_28\n      jump\t// in\n    tag_27:\n      stop\n        /* \"Slot.sol\":977:1136  function withdraw() public {... */\n    tag_12:\n        /* \"Slot.sol\":1036:1041  owner */\n      0x00\n      dup1\n      sload\n      swap1\n      0x0100\n      exp\n      swap1\n      div\n      0xffffffffffffffffffffffffffffffffffffffff\n      and\n        /* \"Slot.sol\":1022:1041  msg.sender == owner */\n      0xffffffffffffffffffffffffffffffffffffffff\n      and\n        /* \"Slot.sol\":1022:1032  msg.sender */\n      caller\n        /* \"Slot.sol\":1022:1041  msg.sender == owner */\n      0xffffffffffffffffffffffffffffffffffffffff\n      and\n      eq\n        /* \"Slot.sol\":1014:1073  require(msg.sender == owner, \"Only the owner can withdraw\") */\n      tag_30\n      jumpi\n      mload(0x40)\n      0x08c379a000000000000000000000000000000000000000000000000000000000\n      dup2\n      mstore\n      0x04\n      add\n      tag_31\n      swap1\n      tag_32\n      jump\t// in\n    tag_31:\n      mload(0x40)\n      dup1\n      swap2\n      sub\n      swap1\n      revert\n    tag_30:\n        /* \"Slot.sol\":1091:1096  owner */\n      0x00\n      dup1\n      sload\n      swap1\n      0x0100\n      exp\n      swap1\n      div\n      0xffffffffffffffffffffffffffffffffffffffff\n      and\n        /* \"Slot.sol\":1083:1106  payable(owner).transfer */\n      0xffffffffffffffffffffffffffffffffffffffff\n      and\n        /* \"Slot.sol\":1083:1129  payable(owner).transfer(address(this).balance) */\n      0x08fc\n        /* \"Slot.sol\":1107:1128  address(this).balance */\n      selfbalance\n        /* \"Slot.sol\":1083:1129  payable(owner).transfer(address(this).balance) */\n      swap1\n      dup2\n      iszero\n      mul\n      swap1\n      mload(0x40)\n      0x00\n      mload(0x40)\n      dup1\n      dup4\n      sub\n      dup2\n      dup6\n      dup9\n      dup9\n      call\n      swap4\n      pop\n      pop\n      pop\n      pop\n      iszero\n      dup1\n      iszero\n      tag_34\n      jumpi\n      returndatasize\n      0x00\n      dup1\n      returndatacopy\n      revert(0x00, returndatasize)\n    tag_34:\n      pop\n        /* \"Slot.sol\":977:1136  function withdraw() public {... */\n      jump\t// out\n        /* \"Slot.sol\":105:152  uint256 public constant BET_AMOUNT = 0.01 ether */\n    tag_15:\n        /* \"Slot.sol\":142:152  0.01 ether */\n      0x2386f26fc10000\n        /* \"Slot.sol\":105:152  uint256 public constant BET_AMOUNT = 0.01 ether */\n      dup2\n      jump\t// out\n        /* \"Slot.sol\":79:99  address public owner */\n    tag_20:\n      0x00\n      dup1\n      sload\n      swap1\n      0x0100\n      exp\n      swap1\n      div\n      0xffffffffffffffffffffffffffffffffffffffff\n      and\n      dup2\n      jump\t// out\n        /* \"Slot.sol\":158:185  uint256 public randomNumber */\n    tag_25:\n      sload(0x01)\n      dup2\n      jump\t// out\n        /* \"Slot.sol\":328:794  function spin() public payable {... */\n    tag_28:\n        /* \"Slot.sol\":142:152  0.01 ether */\n      0x2386f26fc10000\n        /* \"Slot.sol\":377:386  msg.value */\n      callvalue\n        /* \"Slot.sol\":377:400  msg.value == BET_AMOUNT */\n      eq\n        /* \"Slot.sol\":369:434  require(msg.value == BET_AMOUNT, \"Bet amount must be 0.01 Ether\") */\n      tag_36\n      jumpi\n      mload(0x40)\n      0x08c379a000000000000000000000000000000000000000000000000000000000\n      dup2\n      mstore\n      0x04\n      add\n      tag_37\n      swap1\n      tag_38\n      jump\t// in\n    tag_37:\n      mload(0x40)\n      dup1\n      swap2\n      sub\n      swap1\n      revert\n    tag_36:\n        /* \"Slot.sol\":554:557  100 */\n      0x64\n        /* \"Slot.sol\":503:518  block.timestamp */\n      timestamp\n        /* \"Slot.sol\":520:536  block.prevrandao */\n      prevrandao\n        /* \"Slot.sol\":538:548  msg.sender */\n      caller\n        /* \"Slot.sol\":486:549  abi.encodePacked(block.timestamp, block.prevrandao, msg.sender) */\n      add(0x20, mload(0x40))\n      tag_39\n      swap4\n      swap3\n      swap2\n      swap1\n      tag_40\n      jump\t// in\n    tag_39:\n      mload(0x40)\n      0x20\n      dup2\n      dup4\n      sub\n      sub\n      dup2\n      mstore\n      swap1\n      0x40\n      mstore\n        /* \"Slot.sol\":476:550  keccak256(abi.encodePacked(block.timestamp, block.prevrandao, msg.sender)) */\n      dup1\n      mload\n      swap1\n      0x20\n      add\n      keccak256\n        /* \"Slot.sol\":468:551  uint256(keccak256(abi.encodePacked(block.timestamp, block.prevrandao, msg.sender))) */\n      0x00\n      shr\n        /* \"Slot.sol\":468:557  uint256(keccak256(abi.encodePacked(block.timestamp, block.prevrandao, msg.sender))) % 100 */\n      tag_41\n      swap2\n      swap1\n      tag_42\n      jump\t// in\n    tag_41:\n        /* \"Slot.sol\":453:465  randomNumber */\n      0x01\n        /* \"Slot.sol\":453:557  randomNumber = uint256(keccak256(abi.encodePacked(block.timestamp, block.prevrandao, msg.sender))) % 100 */\n      dup2\n      swap1\n      sstore\n      pop\n        /* \"Slot.sol\":576:592  uint256 winnings */\n      0x00\n        /* \"Slot.sol\":595:626  calculateWinnings(randomNumber) */\n      tag_43\n        /* \"Slot.sol\":613:625  randomNumber */\n      sload(0x01)\n        /* \"Slot.sol\":595:612  calculateWinnings */\n      tag_44\n        /* \"Slot.sol\":595:626  calculateWinnings(randomNumber) */\n      jump\t// in\n    tag_43:\n        /* \"Slot.sol\":576:626  uint256 winnings = calculateWinnings(randomNumber) */\n      swap1\n      pop\n        /* \"Slot.sol\":652:653  0 */\n      0x00\n        /* \"Slot.sol\":641:649  winnings */\n      dup2\n        /* \"Slot.sol\":641:653  winnings > 0 */\n      gt\n        /* \"Slot.sol\":637:718  if (winnings > 0) {... */\n      iszero\n      tag_45\n      jumpi\n        /* \"Slot.sol\":677:687  msg.sender */\n      caller\n        /* \"Slot.sol\":669:697  payable(msg.sender).transfer */\n      0xffffffffffffffffffffffffffffffffffffffff\n      and\n        /* \"Slot.sol\":669:707  payable(msg.sender).transfer(winnings) */\n      0x08fc\n        /* \"Slot.sol\":698:706  winnings */\n      dup3\n        /* \"Slot.sol\":669:707  payable(msg.sender).transfer(winnings) */\n      swap1\n      dup2\n      iszero\n      mul\n      swap1\n      mload(0x40)\n      0x00\n      mload(0x40)\n      dup1\n      dup4\n      sub\n      dup2\n      dup6\n      dup9\n      dup9\n      call\n      swap4\n      pop\n      pop\n      pop\n      pop\n      iszero\n      dup1\n      iszero\n      tag_47\n      jumpi\n      returndatasize\n      0x00\n      dup1\n      returndatacopy\n      revert(0x00, returndatasize)\n    tag_47:\n      pop\n        /* \"Slot.sol\":637:718  if (winnings > 0) {... */\n    tag_45:\n        /* \"Slot.sol\":752:762  msg.sender */\n      caller\n        /* \"Slot.sol\":741:787  SpinResult(msg.sender, randomNumber, winnings) */\n      0xffffffffffffffffffffffffffffffffffffffff\n      and\n      0xb4985cac9625ded2de92a1c21175b15605fd3322a34e94f936745e9e64013543\n        /* \"Slot.sol\":764:776  randomNumber */\n      sload(0x01)\n        /* \"Slot.sol\":778:786  winnings */\n      dup4\n        /* \"Slot.sol\":741:787  SpinResult(msg.sender, randomNumber, winnings) */\n      mload(0x40)\n      tag_48\n      swap3\n      swap2\n      swap1\n      tag_49\n      jump\t// in\n    tag_48:\n      mload(0x40)\n      dup1\n      swap2\n      sub\n      swap1\n      log2\n        /* \"Slot.sol\":359:794  {... */\n      pop\n        /* \"Slot.sol\":328:794  function spin() public payable {... */\n      jump\t// out\n        /* \"Slot.sol\":800:971  function calculateWinnings(uint256 random) private pure returns (uint256) {... */\n    tag_44:\n        /* \"Slot.sol\":865:872  uint256 */\n      0x00\n        /* \"Slot.sol\":897:899  10 */\n      0x0a\n        /* \"Slot.sol\":888:894  random */\n      dup3\n        /* \"Slot.sol\":888:899  random < 10 */\n      lt\n        /* \"Slot.sol\":884:947  if (random < 10) {... */\n      iszero\n      tag_51\n      jumpi\n        /* \"Slot.sol\":935:936  2 */\n      0x02\n        /* \"Slot.sol\":142:152  0.01 ether */\n      0x2386f26fc10000\n        /* \"Slot.sol\":922:936  BET_AMOUNT * 2 */\n      tag_52\n      swap2\n      swap1\n      tag_53\n      jump\t// in\n    tag_52:\n        /* \"Slot.sol\":915:936  return BET_AMOUNT * 2 */\n      swap1\n      pop\n      jump(tag_50)\n        /* \"Slot.sol\":884:947  if (random < 10) {... */\n    tag_51:\n        /* \"Slot.sol\":963:964  0 */\n      0x00\n        /* \"Slot.sol\":956:964  return 0 */\n      swap1\n      pop\n        /* \"Slot.sol\":800:971  function calculateWinnings(uint256 random) private pure returns (uint256) {... */\n    tag_50:\n      swap2\n      swap1\n      pop\n      jump\t// out\n        /* \"#utility.yul\":7:84   */\n    tag_54:\n        /* \"#utility.yul\":44:51   */\n      0x00\n        /* \"#utility.yul\":73:78   */\n      dup2\n        /* \"#utility.yul\":62:78   */\n      swap1\n      pop\n        /* \"#utility.yul\":7:84   */\n      swap2\n      swap1\n      pop\n      jump\t// out\n        /* \"#utility.yul\":90:208   */\n    tag_55:\n        /* \"#utility.yul\":177:201   */\n      tag_75\n        /* \"#utility.yul\":195:200   */\n      dup2\n        /* \"#utility.yul\":177:201   */\n      tag_54\n      jump\t// in\n    tag_75:\n        /* \"#utility.yul\":172:175   */\n      dup3\n        /* \"#utility.yul\":165:202   */\n      mstore\n        /* \"#utility.yul\":90:208   */\n      pop\n      pop\n      jump\t// out\n        /* \"#utility.yul\":214:436   */\n    tag_17:\n        /* \"#utility.yul\":307:311   */\n      0x00\n        /* \"#utility.yul\":345:347   */\n      0x20\n        /* \"#utility.yul\":334:343   */\n      dup3\n        /* \"#utility.yul\":330:348   */\n      add\n        /* \"#utility.yul\":322:348   */\n      swap1\n      pop\n        /* \"#utility.yul\":358:429   */\n      tag_77\n        /* \"#utility.yul\":426:427   */\n      0x00\n        /* \"#utility.yul\":415:424   */\n      dup4\n        /* \"#utility.yul\":411:428   */\n      add\n        /* \"#utility.yul\":402:408   */\n      dup5\n        /* \"#utility.yul\":358:429   */\n      tag_55\n      jump\t// in\n    tag_77:\n        /* \"#utility.yul\":214:436   */\n      swap3\n      swap2\n      pop\n      pop\n      jump\t// out\n        /* \"#utility.yul\":442:568   */\n    tag_56:\n        /* \"#utility.yul\":479:486   */\n      0x00\n        /* \"#utility.yul\":519:561   */\n      0xffffffffffffffffffffffffffffffffffffffff\n        /* \"#utility.yul\":512:517   */\n      dup3\n        /* \"#utility.yul\":508:562   */\n      and\n        /* \"#utility.yul\":497:562   */\n      swap1\n      pop\n        /* \"#utility.yul\":442:568   */\n      swap2\n      swap1\n      pop\n      jump\t// out\n        /* \"#utility.yul\":574:670   */\n    tag_57:\n        /* \"#utility.yul\":611:618   */\n      0x00\n        /* \"#utility.yul\":640:664   */\n      tag_80\n        /* \"#utility.yul\":658:663   */\n      dup3\n        /* \"#utility.yul\":640:664   */\n      tag_56\n      jump\t// in\n    tag_80:\n        /* \"#utility.yul\":629:664   */\n      swap1\n      pop\n        /* \"#utility.yul\":574:670   */\n      swap2\n      swap1\n      pop\n      jump\t// out\n        /* \"#utility.yul\":676:794   */\n    tag_58:\n        /* \"#utility.yul\":763:787   */\n      tag_82\n        /* \"#utility.yul\":781:786   */\n      dup2\n        /* \"#utility.yul\":763:787   */\n      tag_57\n      jump\t// in\n    tag_82:\n        /* \"#utility.yul\":758:761   */\n      dup3\n        /* \"#utility.yul\":751:788   */\n      mstore\n        /* \"#utility.yul\":676:794   */\n      pop\n      pop\n      jump\t// out\n        /* \"#utility.yul\":800:1022   */\n    tag_22:\n        /* \"#utility.yul\":893:897   */\n      0x00\n        /* \"#utility.yul\":931:933   */\n      0x20\n        /* \"#utility.yul\":920:929   */\n      dup3\n        /* \"#utility.yul\":916:934   */\n      add\n        /* \"#utility.yul\":908:934   */\n      swap1\n      pop\n        /* \"#utility.yul\":944:1015   */\n      tag_84\n        /* \"#utility.yul\":1012:1013   */\n      0x00\n        /* \"#utility.yul\":1001:1010   */\n      dup4\n        /* \"#utility.yul\":997:1014   */\n      add\n        /* \"#utility.yul\":988:994   */\n      dup5\n        /* \"#utility.yul\":944:1015   */\n      tag_58\n      jump\t// in\n    tag_84:\n        /* \"#utility.yul\":800:1022   */\n      swap3\n      swap2\n      pop\n      pop\n      jump\t// out\n        /* \"#utility.yul\":1028:1197   */\n    tag_59:\n        /* \"#utility.yul\":1112:1123   */\n      0x00\n        /* \"#utility.yul\":1146:1152   */\n      dup3\n        /* \"#utility.yul\":1141:1144   */\n      dup3\n        /* \"#utility.yul\":1134:1153   */\n      mstore\n        /* \"#utility.yul\":1186:1190   */\n      0x20\n        /* \"#utility.yul\":1181:1184   */\n      dup3\n        /* \"#utility.yul\":1177:1191   */\n      add\n        /* \"#utility.yul\":1162:1191   */\n      swap1\n      pop\n        /* \"#utility.yul\":1028:1197   */\n      swap3\n      swap2\n      pop\n      pop\n      jump\t// out\n        /* \"#utility.yul\":1203:1380   */\n    tag_60:\n        /* \"#utility.yul\":1343:1372   */\n      0x4f6e6c7920746865206f776e65722063616e2077697468647261770000000000\n        /* \"#utility.yul\":1339:1340   */\n      0x00\n        /* \"#utility.yul\":1331:1337   */\n      dup3\n        /* \"#utility.yul\":1327:1341   */\n      add\n        /* \"#utility.yul\":1320:1373   */\n      mstore\n        /* \"#utility.yul\":1203:1380   */\n      pop\n      jump\t// out\n        /* \"#utility.yul\":1386:1752   */\n    tag_61:\n        /* \"#utility.yul\":1528:1531   */\n      0x00\n        /* \"#utility.yul\":1549:1616   */\n      tag_88\n        /* \"#utility.yul\":1613:1615   */\n      0x1b\n        /* \"#utility.yul\":1608:1611   */\n      dup4\n        /* \"#utility.yul\":1549:1616   */\n      tag_59\n      jump\t// in\n    tag_88:\n        /* \"#utility.yul\":1542:1616   */\n      swap2\n      pop\n        /* \"#utility.yul\":1625:1718   */\n      tag_89\n        /* \"#utility.yul\":1714:1717   */\n      dup3\n        /* \"#utility.yul\":1625:1718   */\n      tag_60\n      jump\t// in\n    tag_89:\n        /* \"#utility.yul\":1743:1745   */\n      0x20\n        /* \"#utility.yul\":1738:1741   */\n      dup3\n        /* \"#utility.yul\":1734:1746   */\n      add\n        /* \"#utility.yul\":1727:1746   */\n      swap1\n      pop\n        /* \"#utility.yul\":1386:1752   */\n      swap2\n      swap1\n      pop\n      jump\t// out\n        /* \"#utility.yul\":1758:2177   */\n    tag_32:\n        /* \"#utility.yul\":1924:1928   */\n      0x00\n        /* \"#utility.yul\":1962:1964   */\n      0x20\n        /* \"#utility.yul\":1951:1960   */\n      dup3\n        /* \"#utility.yul\":1947:1965   */\n      add\n        /* \"#utility.yul\":1939:1965   */\n      swap1\n      pop\n        /* \"#utility.yul\":2011:2020   */\n      dup2\n        /* \"#utility.yul\":2005:2009   */\n      dup2\n        /* \"#utility.yul\":2001:2021   */\n      sub\n        /* \"#utility.yul\":1997:1998   */\n      0x00\n        /* \"#utility.yul\":1986:1995   */\n      dup4\n        /* \"#utility.yul\":1982:1999   */\n      add\n        /* \"#utility.yul\":1975:2022   */\n      mstore\n        /* \"#utility.yul\":2039:2170   */\n      tag_91\n        /* \"#utility.yul\":2165:2169   */\n      dup2\n        /* \"#utility.yul\":2039:2170   */\n      tag_61\n      jump\t// in\n    tag_91:\n        /* \"#utility.yul\":2031:2170   */\n      swap1\n      pop\n        /* \"#utility.yul\":1758:2177   */\n      swap2\n      swap1\n      pop\n      jump\t// out\n        /* \"#utility.yul\":2183:2362   */\n    tag_62:\n        /* \"#utility.yul\":2323:2354   */\n      0x42657420616d6f756e74206d75737420626520302e3031204574686572000000\n        /* \"#utility.yul\":2319:2320   */\n      0x00\n        /* \"#utility.yul\":2311:2317   */\n      dup3\n        /* \"#utility.yul\":2307:2321   */\n      add\n        /* \"#utility.yul\":2300:2355   */\n      mstore\n        /* \"#utility.yul\":2183:2362   */\n      pop\n      jump\t// out\n        /* \"#utility.yul\":2368:2734   */\n    tag_63:\n        /* \"#utility.yul\":2510:2513   */\n      0x00\n        /* \"#utility.yul\":2531:2598   */\n      tag_94\n        /* \"#utility.yul\":2595:2597   */\n      0x1d\n        /* \"#utility.yul\":2590:2593   */\n      dup4\n        /* \"#utility.yul\":2531:2598   */\n      tag_59\n      jump\t// in\n    tag_94:\n        /* \"#utility.yul\":2524:2598   */\n      swap2\n      pop\n        /* \"#utility.yul\":2607:2700   */\n      tag_95\n        /* \"#utility.yul\":2696:2699   */\n      dup3\n        /* \"#utility.yul\":2607:2700   */\n      tag_62\n      jump\t// in\n    tag_95:\n        /* \"#utility.yul\":2725:2727   */\n      0x20\n        /* \"#utility.yul\":2720:2723   */\n      dup3\n        /* \"#utility.yul\":2716:2728   */\n      add\n        /* \"#utility.yul\":2709:2728   */\n      swap1\n      pop\n        /* \"#utility.yul\":2368:2734   */\n      swap2\n      swap1\n      pop\n      jump\t// out\n        /* \"#utility.yul\":2740:3159   */\n    tag_38:\n        /* \"#utility.yul\":2906:2910   */\n      0x00\n        /* \"#utility.yul\":2944:2946   */\n      0x20\n        /* \"#utility.yul\":2933:2942   */\n      dup3\n        /* \"#utility.yul\":2929:2947   */\n      add\n        /* \"#utility.yul\":2921:2947   */\n      swap1\n      pop\n        /* \"#utility.yul\":2993:3002   */\n      dup2\n        /* \"#utility.yul\":2987:2991   */\n      dup2\n        /* \"#utility.yul\":2983:3003   */\n      sub\n        /* \"#utility.yul\":2979:2980   */\n      0x00\n        /* \"#utility.yul\":2968:2977   */\n      dup4\n        /* \"#utility.yul\":2964:2981   */\n      add\n        /* \"#utility.yul\":2957:3004   */\n      mstore\n        /* \"#utility.yul\":3021:3152   */\n      tag_97\n        /* \"#utility.yul\":3147:3151   */\n      dup2\n        /* \"#utility.yul\":3021:3152   */\n      tag_63\n      jump\t// in\n    tag_97:\n        /* \"#utility.yul\":3013:3152   */\n      swap1\n      pop\n        /* \"#utility.yul\":2740:3159   */\n      swap2\n      swap1\n      pop\n      jump\t// out\n        /* \"#utility.yul\":3165:3244   */\n    tag_64:\n        /* \"#utility.yul\":3204:3211   */\n      0x00\n        /* \"#utility.yul\":3233:3238   */\n      dup2\n        /* \"#utility.yul\":3222:3238   */\n      swap1\n      pop\n        /* \"#utility.yul\":3165:3244   */\n      swap2\n      swap1\n      pop\n      jump\t// out\n        /* \"#utility.yul\":3250:3407   */\n    tag_65:\n        /* \"#utility.yul\":3355:3400   */\n      tag_100\n        /* \"#utility.yul\":3375:3399   */\n      tag_101\n        /* \"#utility.yul\":3393:3398   */\n      dup3\n        /* \"#utility.yul\":3375:3399   */\n      tag_54\n      jump\t// in\n    tag_101:\n        /* \"#utility.yul\":3355:3400   */\n      tag_64\n      jump\t// in\n    tag_100:\n        /* \"#utility.yul\":3350:3353   */\n      dup3\n        /* \"#utility.yul\":3343:3401   */\n      mstore\n        /* \"#utility.yul\":3250:3407   */\n      pop\n      pop\n      jump\t// out\n        /* \"#utility.yul\":3413:3507   */\n    tag_66:\n        /* \"#utility.yul\":3446:3454   */\n      0x00\n        /* \"#utility.yul\":3494:3499   */\n      dup2\n        /* \"#utility.yul\":3490:3492   */\n      0x60\n        /* \"#utility.yul\":3486:3500   */\n      shl\n        /* \"#utility.yul\":3465:3500   */\n      swap1\n      pop\n        /* \"#utility.yul\":3413:3507   */\n      swap2\n      swap1\n      pop\n      jump\t// out\n        /* \"#utility.yul\":3513:3607   */\n    tag_67:\n        /* \"#utility.yul\":3552:3559   */\n      0x00\n        /* \"#utility.yul\":3581:3601   */\n      tag_104\n        /* \"#utility.yul\":3595:3600   */\n      dup3\n        /* \"#utility.yul\":3581:3601   */\n      tag_66\n      jump\t// in\n    tag_104:\n        /* \"#utility.yul\":3570:3601   */\n      swap1\n      pop\n        /* \"#utility.yul\":3513:3607   */\n      swap2\n      swap1\n      pop\n      jump\t// out\n        /* \"#utility.yul\":3613:3713   */\n    tag_68:\n        /* \"#utility.yul\":3652:3659   */\n      0x00\n        /* \"#utility.yul\":3681:3707   */\n      tag_106\n        /* \"#utility.yul\":3701:3706   */\n      dup3\n        /* \"#utility.yul\":3681:3707   */\n      tag_67\n      jump\t// in\n    tag_106:\n        /* \"#utility.yul\":3670:3707   */\n      swap1\n      pop\n        /* \"#utility.yul\":3613:3713   */\n      swap2\n      swap1\n      pop\n      jump\t// out\n        /* \"#utility.yul\":3719:3876   */\n    tag_69:\n        /* \"#utility.yul\":3824:3869   */\n      tag_108\n        /* \"#utility.yul\":3844:3868   */\n      tag_109\n        /* \"#utility.yul\":3862:3867   */\n      dup3\n        /* \"#utility.yul\":3844:3868   */\n      tag_57\n      jump\t// in\n    tag_109:\n        /* \"#utility.yul\":3824:3869   */\n      tag_68\n      jump\t// in\n    tag_108:\n        /* \"#utility.yul\":3819:3822   */\n      dup3\n        /* \"#utility.yul\":3812:3870   */\n      mstore\n        /* \"#utility.yul\":3719:3876   */\n      pop\n      pop\n      jump\t// out\n        /* \"#utility.yul\":3882:4420   */\n    tag_40:\n        /* \"#utility.yul\":4050:4053   */\n      0x00\n        /* \"#utility.yul\":4065:4140   */\n      tag_111\n        /* \"#utility.yul\":4136:4139   */\n      dup3\n        /* \"#utility.yul\":4127:4133   */\n      dup7\n        /* \"#utility.yul\":4065:4140   */\n      tag_65\n      jump\t// in\n    tag_111:\n        /* \"#utility.yul\":4165:4167   */\n      0x20\n        /* \"#utility.yul\":4160:4163   */\n      dup3\n        /* \"#utility.yul\":4156:4168   */\n      add\n        /* \"#utility.yul\":4149:4168   */\n      swap2\n      pop\n        /* \"#utility.yul\":4178:4253   */\n      tag_112\n        /* \"#utility.yul\":4249:4252   */\n      dup3\n        /* \"#utility.yul\":4240:4246   */\n      dup6\n        /* \"#utility.yul\":4178:4253   */\n      tag_65\n      jump\t// in\n    tag_112:\n        /* \"#utility.yul\":4278:4280   */\n      0x20\n        /* \"#utility.yul\":4273:4276   */\n      dup3\n        /* \"#utility.yul\":4269:4281   */\n      add\n        /* \"#utility.yul\":4262:4281   */\n      swap2\n      pop\n        /* \"#utility.yul\":4291:4366   */\n      tag_113\n        /* \"#utility.yul\":4362:4365   */\n      dup3\n        /* \"#utility.yul\":4353:4359   */\n      dup5\n        /* \"#utility.yul\":4291:4366   */\n      tag_69\n      jump\t// in\n    tag_113:\n        /* \"#utility.yul\":4391:4393   */\n      0x14\n        /* \"#utility.yul\":4386:4389   */\n      dup3\n        /* \"#utility.yul\":4382:4394   */\n      add\n        /* \"#utility.yul\":4375:4394   */\n      swap2\n      pop\n        /* \"#utility.yul\":4411:4414   */\n      dup2\n        /* \"#utility.yul\":4404:4414   */\n      swap1\n      pop\n        /* \"#utility.yul\":3882:4420   */\n      swap5\n      swap4\n      pop\n      pop\n      pop\n      pop\n      jump\t// out\n        /* \"#utility.yul\":4426:4606   */\n    tag_70:\n        /* \"#utility.yul\":4474:4551   */\n      0x4e487b7100000000000000000000000000000000000000000000000000000000\n        /* \"#utility.yul\":4471:4472   */\n      0x00\n        /* \"#utility.yul\":4464:4552   */\n      mstore\n        /* \"#utility.yul\":4571:4575   */\n      0x12\n        /* \"#utility.yul\":4568:4569   */\n      0x04\n        /* \"#utility.yul\":4561:4576   */\n      mstore\n        /* \"#utility.yul\":4595:4599   */\n      0x24\n        /* \"#utility.yul\":4592:4593   */\n      0x00\n        /* \"#utility.yul\":4585:4600   */\n      revert\n        /* \"#utility.yul\":4612:4788   */\n    tag_42:\n        /* \"#utility.yul\":4644:4645   */\n      0x00\n        /* \"#utility.yul\":4661:4681   */\n      tag_116\n        /* \"#utility.yul\":4679:4680   */\n      dup3\n        /* \"#utility.yul\":4661:4681   */\n      tag_54\n      jump\t// in\n    tag_116:\n        /* \"#utility.yul\":4656:4681   */\n      swap2\n      pop\n        /* \"#utility.yul\":4695:4715   */\n      tag_117\n        /* \"#utility.yul\":4713:4714   */\n      dup4\n        /* \"#utility.yul\":4695:4715   */\n      tag_54\n      jump\t// in\n    tag_117:\n        /* \"#utility.yul\":4690:4715   */\n      swap3\n      pop\n        /* \"#utility.yul\":4734:4735   */\n      dup3\n        /* \"#utility.yul\":4724:4759   */\n      tag_118\n      jumpi\n        /* \"#utility.yul\":4739:4757   */\n      tag_119\n      tag_70\n      jump\t// in\n    tag_119:\n        /* \"#utility.yul\":4724:4759   */\n    tag_118:\n        /* \"#utility.yul\":4780:4781   */\n      dup3\n        /* \"#utility.yul\":4777:4778   */\n      dup3\n        /* \"#utility.yul\":4773:4782   */\n      mod\n        /* \"#utility.yul\":4768:4782   */\n      swap1\n      pop\n        /* \"#utility.yul\":4612:4788   */\n      swap3\n      swap2\n      pop\n      pop\n      jump\t// out\n        /* \"#utility.yul\":4794:5126   */\n    tag_49:\n        /* \"#utility.yul\":4915:4919   */\n      0x00\n        /* \"#utility.yul\":4953:4955   */\n      0x40\n        /* \"#utility.yul\":4942:4951   */\n      dup3\n        /* \"#utility.yul\":4938:4956   */\n      add\n        /* \"#utility.yul\":4930:4956   */\n      swap1\n      pop\n        /* \"#utility.yul\":4966:5037   */\n      tag_121\n        /* \"#utility.yul\":5034:5035   */\n      0x00\n        /* \"#utility.yul\":5023:5032   */\n      dup4\n        /* \"#utility.yul\":5019:5036   */\n      add\n        /* \"#utility.yul\":5010:5016   */\n      dup6\n        /* \"#utility.yul\":4966:5037   */\n      tag_55\n      jump\t// in\n    tag_121:\n        /* \"#utility.yul\":5047:5119   */\n      tag_122\n        /* \"#utility.yul\":5115:5117   */\n      0x20\n        /* \"#utility.yul\":5104:5113   */\n      dup4\n        /* \"#utility.yul\":5100:5118   */\n      add\n        /* \"#utility.yul\":5091:5097   */\n      dup5\n        /* \"#utility.yul\":5047:5119   */\n      tag_55\n      jump\t// in\n    tag_122:\n        /* \"#utility.yul\":4794:5126   */\n      swap4\n      swap3\n      pop\n      pop\n      pop\n      jump\t// out\n        /* \"#utility.yul\":5132:5312   */\n    tag_71:\n        /* \"#utility.yul\":5180:5257   */\n      0x4e487b7100000000000000000000000000000000000000000000000000000000\n        /* \"#utility.yul\":5177:5178   */\n      0x00\n        /* \"#utility.yul\":5170:5258   */\n      mstore\n        /* \"#utility.yul\":5277:5281   */\n      0x11\n        /* \"#utility.yul\":5274:5275   */\n      0x04\n        /* \"#utility.yul\":5267:5282   */\n      mstore\n        /* \"#utility.yul\":5301:5305   */\n      0x24\n        /* \"#utility.yul\":5298:5299   */\n      0x00\n        /* \"#utility.yul\":5291:5306   */\n      revert\n        /* \"#utility.yul\":5318:5728   */\n    tag_53:\n        /* \"#utility.yul\":5358:5365   */\n      0x00\n        /* \"#utility.yul\":5381:5401   */\n      tag_125\n        /* \"#utility.yul\":5399:5400   */\n      dup3\n        /* \"#utility.yul\":5381:5401   */\n      tag_54\n      jump\t// in\n    tag_125:\n        /* \"#utility.yul\":5376:5401   */\n      swap2\n      pop\n        /* \"#utility.yul\":5415:5435   */\n      tag_126\n        /* \"#utility.yul\":5433:5434   */\n      dup4\n        /* \"#utility.yul\":5415:5435   */\n      tag_54\n      jump\t// in\n    tag_126:\n        /* \"#utility.yul\":5410:5435   */\n      swap3\n      pop\n        /* \"#utility.yul\":5470:5471   */\n      dup3\n        /* \"#utility.yul\":5467:5468   */\n      dup3\n        /* \"#utility.yul\":5463:5472   */\n      mul\n        /* \"#utility.yul\":5492:5522   */\n      tag_127\n        /* \"#utility.yul\":5510:5521   */\n      dup2\n        /* \"#utility.yul\":5492:5522   */\n      tag_54\n      jump\t// in\n    tag_127:\n        /* \"#utility.yul\":5481:5522   */\n      swap2\n      pop\n        /* \"#utility.yul\":5671:5672   */\n      dup3\n        /* \"#utility.yul\":5662:5669   */\n      dup3\n        /* \"#utility.yul\":5658:5673   */\n      div\n        /* \"#utility.yul\":5655:5656   */\n      dup5\n        /* \"#utility.yul\":5652:5674   */\n      eq\n        /* \"#utility.yul\":5632:5633   */\n      dup4\n        /* \"#utility.yul\":5625:5634   */\n      iszero\n        /* \"#utility.yul\":5605:5688   */\n      or\n        /* \"#utility.yul\":5582:5721   */\n      tag_128\n      jumpi\n        /* \"#utility.yul\":5701:5719   */\n      tag_129\n      tag_71\n      jump\t// in\n    tag_129:\n        /* \"#utility.yul\":5582:5721   */\n    tag_128:\n        /* \"#utility.yul\":5366:5728   */\n      pop\n        /* \"#utility.yul\":5318:5728   */\n      swap3\n      swap2\n      pop\n      pop\n      jump\t// out\n\n    auxdata: 0xa26469706673582212208f50d50e66d8b67999ebce15f5b45adba41d438daba8d1f9aca3731fb8640f6464736f6c63430008130033\n}\n",
    "bytecode": {
      "linkReferences": {},
      "object": "608060405234801561001057600080fd5b50336000806101000a81548173ffffffffffffffffffffffffffffffffffffffff021916908373ffffffffffffffffffffffffffffffffffffffff1602179055506106e5806100606000396000f3fe60806040526004361061004e5760003560e01c80633ccfd60b1461005a5780633f9326af146100715780638da5cb5b1461009c578063ccbac9f5146100c7578063f0acd7d5146100f257610055565b3661005557005b600080fd5b34801561006657600080fd5b5061006f6100fc565b005b34801561007d57600080fd5b506100866101f3565b60405161009391906103af565b60405180910390f35b3480156100a857600080fd5b506100b16101fe565b6040516100be919061040b565b60405180910390f35b3480156100d357600080fd5b506100dc610222565b6040516100e991906103af565b60405180910390f35b6100fa610228565b005b60008054906101000a900473ffffffffffffffffffffffffffffffffffffffff1673ffffffffffffffffffffffffffffffffffffffff163373ffffffffffffffffffffffffffffffffffffffff161461018a576040517f08c379a000000000000000000000000000000000000000000000000000000000815260040161018190610483565b60405180910390fd5b60008054906101000a900473ffffffffffffffffffffffffffffffffffffffff1673ffffffffffffffffffffffffffffffffffffffff166108fc479081150290604051600060405180830381858888f193505050501580156101f0573d6000803e3d6000fd5b50565b662386f26fc1000081565b60008054906101000a900473ffffffffffffffffffffffffffffffffffffffff1681565b60015481565b662386f26fc100003414610271576040517f08c379a0000000000000000000000000000000000000000000000000000000008152600401610268906104ef565b60405180910390fd5b606442443360405160200161028893929190610578565b6040516020818303038152906040528051906020012060001c6102ab91906105e4565b60018190555060006102be600154610366565b90506000811115610311573373ffffffffffffffffffffffffffffffffffffffff166108fc829081150290604051600060405180830381858888f1935050505015801561030f573d6000803e3d6000fd5b505b3373ffffffffffffffffffffffffffffffffffffffff167fb4985cac9625ded2de92a1c21175b15605fd3322a34e94f936745e9e640135436001548360405161035b929190610615565b60405180910390a250565b6000600a82101561038c576002662386f26fc10000610385919061066d565b9050610391565b600090505b919050565b6000819050919050565b6103a981610396565b82525050565b60006020820190506103c460008301846103a0565b92915050565b600073ffffffffffffffffffffffffffffffffffffffff82169050919050565b60006103f5826103ca565b9050919050565b610405816103ea565b82525050565b600060208201905061042060008301846103fc565b92915050565b600082825260208201905092915050565b7f4f6e6c7920746865206f776e65722063616e2077697468647261770000000000600082015250565b600061046d601b83610426565b915061047882610437565b602082019050919050565b6000602082019050818103600083015261049c81610460565b9050919050565b7f42657420616d6f756e74206d75737420626520302e3031204574686572000000600082015250565b60006104d9601d83610426565b91506104e4826104a3565b602082019050919050565b60006020820190508181036000830152610508816104cc565b9050919050565b6000819050919050565b61052a61052582610396565b61050f565b82525050565b60008160601b9050919050565b600061054882610530565b9050919050565b600061055a8261053d565b9050919050565b61057261056d826103ea565b61054f565b82525050565b60006105848286610519565b6020820191506105948285610519565b6020820191506105a48284610561565b601482019150819050949350505050565b7f4e487b7100000000000000000000000000000000000000000000000000000000600052601260045260246000fd5b60006105ef82610396565b91506105fa83610396565b92508261060a576106096105b5565b5b828206905092915050565b600060408201905061062a60008301856103a0565b61063760208301846103a0565b9392505050565b7f4e487b7100000000000000000000000000000000000000000000000000000000600052601160045260246000fd5b600061067882610396565b915061068383610396565b925082820261069181610396565b915082820484148315176106a8576106a761063e565b5b509291505056fea26469706673582212208f50d50e66d8b67999ebce15f5b45adba41d438daba8d1f9aca3731fb8640f6464736f6c63430008130033",
      "opcodes": "PUSH1 0x80 PUSH1 0x40 MSTORE CALLVALUE DUP1 ISZERO PUSH2 0x10 JUMPI PUSH1 0x0 DUP1 REVERT JUMPDEST POP CALLER PUSH1 0x0 DUP1 PUSH2 0x100 EXP DUP2 SLOAD DUP2 PUSH20 0xFFFFFFFFFFFFFFFFFFFFFFFFFFFFFFFFFFFFFFFF MUL NOT AND SWAP1 DUP4 PUSH20 0xFFFFFFFFFFFFFFFFFFFFFFFFFFFFFFFFFFFFFFFF AND MUL OR SWAP1 SSTORE POP PUSH2 0x6E5 DUP1 PUSH2 0x60 PUSH1 0x0 CODECOPY PUSH1 0x0 RETURN INVALID PUSH1 0x80 PUSH1 0x40 MSTORE PUSH1 0x4 CALLDATASIZE LT PUSH2 0x4E JUMPI PUSH1 0x0 CALLDATALOAD PUSH1 0xE0 SHR DUP1 PUSH4 0x3CCFD60B EQ PUSH2 0x5A JUMPI DUP1 PUSH4 0x3F9326AF EQ PUSH2 0x71 JUMPI DUP1 PUSH4 0x8DA5CB5B EQ PUSH2 0x9C JUMPI DUP1 PUSH4 0xCCBAC9F5 EQ PUSH2 0xC7 JUMPI DUP1 PUSH4 0xF0ACD7D5 EQ PUSH2 0xF2 JUMPI PUSH2 0x55 JUMP JUMPDEST CALLDATASIZE PUSH2 0x55 JUMPI STOP JUMPDEST PUSH1 0x0 DUP1 REVERT JUMPDEST CALLVALUE DUP1 ISZERO PUSH2 0x66 JUMPI PUSH1 0x0 DUP1 REVERT JUMPDEST POP PUSH2 0x6F PUSH2 0xFC JUMP JUMPDEST STOP JUMPDEST CALLVALUE DUP1 ISZERO PUSH2 0x7D JUMPI PUSH1 0x0 DUP1 REVERT JUMPDEST POP PUSH2 0x86 PUSH2 0x1F3 JUMP JUMPDEST PUSH1 0x40 MLOAD PUSH2 0x93 SWAP2 SWAP1 PUSH2 0x3AF JUMP JUMPDEST PUSH1 0x40 MLOAD DUP1 SWAP2 SUB SWAP1 RETURN JUMPDEST CALLVALUE DUP1 ISZERO PUSH2 0xA8 JUMPI PUSH1 0x0 DUP1 REVERT JUMPDEST POP PUSH2 0xB1 PUSH2 0x1FE JUMP JUMPDEST PUSH1 0x40 MLOAD PUSH2 0xBE SWAP2 SWAP1 PUSH2 0x40B JUMP JUMPDEST PUSH1 0x40 MLOAD DUP1 SWAP2 SUB SWAP1 RETURN JUMPDEST CALLVALUE DUP1 ISZERO PUSH2 0xD3 JUMPI PUSH1 0x0 DUP1 REVERT JUMPDEST POP PUSH2 0xDC PUSH2 0x222 JUMP JUMPDEST PUSH1 0x40 MLOAD PUSH2 0xE9 SWAP2 SWAP1 PUSH2 0x3AF JUMP JUMPDEST PUSH1 0x40 MLOAD DUP1 SWAP2 SUB SWAP1 RETURN JUMPDEST PUSH2 0xFA PUSH2 0x228 JUMP JUMPDEST STOP JUMPDEST PUSH1 0x0 DUP1 SLOAD SWAP1 PUSH2 0x100 EXP SWAP1 DIV PUSH20 0xFFFFFFFFFFFFFFFFFFFFFFFFFFFFFFFFFFFFFFFF AND PUSH20 0xFFFFFFFFFFFFFFFFFFFFFFFFFFFFFFFFFFFFFFFF AND CALLER PUSH20 0xFFFFFFFFFFFFFFFFFFFFFFFFFFFFFFFFFFFFFFFF AND EQ PUSH2 0x18A JUMPI PUSH1 0x40 MLOAD PUSH32 0x8C379A000000000000000000000000000000000000000000000000000000000 DUP2 MSTORE PUSH1 0x4 ADD PUSH2 0x181 SWAP1 PUSH2 0x483 JUMP JUMPDEST PUSH1 0x40 MLOAD DUP1 SWAP2 SUB SWAP1 REVERT JUMPDEST PUSH1 0x0 DUP1 SLOAD SWAP1 PUSH2 0x100 EXP SWAP1 DIV PUSH20 0xFFFFFFFFFFFFFFFFFFFFFFFFFFFFFFFFFFFFFFFF AND PUSH20 0xFFFFFFFFFFFFFFFFFFFFFFFFFFFFFFFFFFFFFFFF AND PUSH2 0x8FC SELFBALANCE SWAP1 DUP2 ISZERO MUL SWAP1 PUSH1 0x40 MLOAD PUSH1 0x0 PUSH1 0x40 MLOAD DUP1 DUP4 SUB DUP2 DUP6 DUP9 DUP9 CALL SWAP4 POP POP POP POP ISZERO DUP1 ISZERO PUSH2 0x1F0 JUMPI RETURNDATASIZE PUSH1 0x0 DUP1 RETURNDATACOPY RETURNDATASIZE PUSH1 0x0 REVERT JUMPDEST POP JUMP JUMPDEST PUSH7 0x2386F26FC10000 DUP2 JUMP JUMPDEST PUSH1 0x0 DUP1 SLOAD SWAP1 PUSH2 0x100 EXP SWAP1 DIV PUSH20 0xFFFFFFFFFFFFFFFFFFFFFFFFFFFFFFFFFFFFFFFF AND DUP2 JUMP JUMPDEST PUSH1 0x1 SLOAD DUP2 JUMP JUMPDEST PUSH7 0x2386F26FC10000 CALLVALUE EQ PUSH2 0x271 JUMPI PUSH1 0x40 MLOAD PUSH32 0x8C379A000000000000000000000000000000000000000000000000000000000 DUP2 MSTORE PUSH1 0x4 ADD PUSH2 0x268 SWAP1 PUSH2 0x4EF JUMP JUMPDEST PUSH1 0x40 MLOAD DUP1 SWAP2 SUB SWAP1 REVERT JUMPDEST PUSH1 0x64 TIMESTAMP PREVRANDAO CALLER PUSH1 0x40 MLOAD PUSH1 0x20 ADD PUSH2 0x288 SWAP4 SWAP3 SWAP2 SWAP1 PUSH2 0x578 JUMP JUMPDEST PUSH1 0x40 MLOAD PUSH1 0x20 DUP2 DUP4 SUB SUB DUP2 MSTORE SWAP1 PUSH1 0x40 MSTORE DUP1 MLOAD SWAP1 PUSH1 0x20 ADD KECCAK256 PUSH1 0x0 SHR PUSH2 0x2AB SWAP2 SWAP1 PUSH2 0x5E4 JUMP JUMPDEST PUSH1 0x1 DUP2 SWAP1 SSTORE POP PUSH1 0x0 PUSH2 0x2BE PUSH1 0x1 SLOAD PUSH2 0x366 JUMP JUMPDEST SWAP1 POP PUSH1 0x0 DUP2 GT ISZERO PUSH2 0x311 JUMPI CALLER PUSH20 0xFFFFFFFFFFFFFFFFFFFFFFFFFFFFFFFFFFFFFFFF AND PUSH2 0x8FC DUP3 SWAP1 DUP2 ISZERO MUL SWAP1 PUSH1 0x40 MLOAD PUSH1 0x0 PUSH1 0x40 MLOAD DUP1 DUP4 SUB DUP2 DUP6 DUP9 DUP9 CALL SWAP4 POP POP POP POP ISZERO DUP1 ISZERO PUSH2 0x30F JUMPI RETURNDATASIZE PUSH1 0x0 DUP1 RETURNDATACOPY RETURNDATASIZE PUSH1 0x0 REVERT JUMPDEST POP JUMPDEST CALLER PUSH20 0xFFFFFFFFFFFFFFFFFFFFFFFFFFFFFFFFFFFFFFFF AND PUSH32 0xB4985CAC9625DED2DE92A1C21175B15605FD3322A34E94F936745E9E64013543 PUSH1 0x1 SLOAD DUP4 PUSH1 0x40 MLOAD PUSH2 0x35B SWAP3 SWAP2 SWAP1 PUSH2 0x615 JUMP JUMPDEST PUSH1 0x40 MLOAD DUP1 SWAP2 SUB SWAP1 LOG2 POP JUMP JUMPDEST PUSH1 0x0 PUSH1 0xA DUP3 LT ISZERO PUSH2 0x38C JUMPI PUSH1 0x2 PUSH7 0x2386F26FC10000 PUSH2 0x385 SWAP2 SWAP1 PUSH2 0x66D JUMP JUMPDEST SWAP1 POP PUSH2 0x391 JUMP JUMPDEST PUSH1 0x0 SWAP1 POP JUMPDEST SWAP2 SWAP1 POP JUMP JUMPDEST PUSH1 0x0 DUP2 SWAP1 POP SWAP2 SWAP1 POP JUMP JUMPDEST PUSH2 0x3A9 DUP2 PUSH2 0x396 JUMP JUMPDEST DUP3 MSTORE POP POP JUMP JUMPDEST PUSH1 0x0 PUSH1 0x20 DUP3 ADD SWAP1 POP PUSH2 0x3C4 PUSH1 0x0 DUP4 ADD DUP5 PUSH2 0x3A0 JUMP JUMPDEST SWAP3 SWAP2 POP POP JUMP JUMPDEST PUSH1 0x0 PUSH20 0xFFFFFFFFFFFFFFFFFFFFFFFFFFFFFFFFFFFFFFFF DUP3 AND SWAP1 POP SWAP2 SWAP1 POP JUMP JUMPDEST PUSH1 0x0 PUSH2 0x3F5 DUP3 PUSH2 0x3CA JUMP JUMPDEST SWAP1 POP SWAP2 SWAP1 POP JUMP JUMPDEST PUSH2 0x405 DUP2 PUSH2 0x3EA JUMP JUMPDEST DUP3 MSTORE POP POP JUMP JUMPDEST PUSH1 0x0 PUSH1 0x20 DUP3 ADD SWAP1 POP PUSH2 0x420 PUSH1 0x0 DUP4 ADD DUP5 PUSH2 0x3FC JUMP JUMPDEST SWAP3 SWAP2 POP POP JUMP JUMPDEST PUSH1 0x0 DUP3 DUP3 MSTORE PUSH1 0x20 DUP3 ADD SWAP1 POP SWAP3 SWAP2 POP POP JUMP JUMPDEST PUSH32 0x4F6E6C7920746865206F776E65722063616E2077697468647261770000000000 PUSH1 0x0 DUP3 ADD MSTORE POP JUMP JUMPDEST PUSH1 0x0 PUSH2 0x46D PUSH1 0x1B DUP4 PUSH2 0x426 JUMP JUMPDEST SWAP2 POP PUSH2 0x478 DUP3 PUSH2 0x437 JUMP JUMPDEST PUSH1 0x20 DUP3 ADD SWAP1 POP SWAP2 SWAP1 POP JUMP JUMPDEST PUSH1 0x0 PUSH1 0x20 DUP3 ADD SWAP1 POP DUP2 DUP2 SUB PUSH1 0x0 DUP4 ADD MSTORE PUSH2 0x49C DUP2 PUSH2 0x460 JUMP JUMPDEST SWAP1 POP SWAP2 SWAP1 POP JUMP JUMPDEST PUSH32 0x42657420616D6F756E74206D75737420626520302E3031204574686572000000 PUSH1 0x0 DUP3 ADD MSTORE POP JUMP JUMPDEST PUSH1 0x0 PUSH2 0x4D9 PUSH1 0x1D DUP4 PUSH2 0x426 JUMP JUMPDEST SWAP2 POP PUSH2 0x4E4 DUP3 PUSH2 0x4A3 JUMP JUMPDEST PUSH1 0x20 DUP3 ADD SWAP1 POP SWAP2 SWAP1 POP JUMP JUMPDEST PUSH1 0x0 PUSH1 0x20 DUP3 ADD SWAP1 POP DUP2 DUP2 SUB PUSH1 0x0 DUP4 ADD MSTORE PUSH2 0x508 DUP2 PUSH2 0x4CC JUMP JUMPDEST SWAP1 POP SWAP2 SWAP1 POP JUMP JUMPDEST PUSH1 0x0 DUP2 SWAP1 POP SWAP2 SWAP1 POP JUMP JUMPDEST PUSH2 0x52A PUSH2 0x525 DUP3 PUSH2 0x396 JUMP JUMPDEST PUSH2 0x50F JUMP JUMPDEST DUP3 MSTORE POP POP JUMP JUMPDEST PUSH1 0x0 DUP2 PUSH1 0x60 SHL SWAP1 POP SWAP2 SWAP1 POP JUMP JUMPDEST PUSH1 0x0 PUSH2 0x548 DUP3 PUSH2 0x530 JUMP JUMPDEST SWAP1 POP SWAP2 SWAP1 POP JUMP JUMPDEST PUSH1 0x0 PUSH2 0x55A DUP3 PUSH2 0x53D JUMP JUMPDEST SWAP1 POP SWAP2 SWAP1 POP JUMP JUMPDEST PUSH2 0x572 PUSH2 0x56D DUP3 PUSH2 0x3EA JUMP JUMPDEST PUSH2 0x54F JUMP JUMPDEST DUP3 MSTORE POP POP JUMP JUMPDEST PUSH1 0x0 PUSH2 0x584 DUP3 DUP7 PUSH2 0x519 JUMP JUMPDEST PUSH1 0x20 DUP3 ADD SWAP2 POP PUSH2 0x594 DUP3 DUP6 PUSH2 0x519 JUMP JUMPDEST PUSH1 0x20 DUP3 ADD SWAP2 POP PUSH2 0x5A4 DUP3 DUP5 PUSH2 0x561 JUMP JUMPDEST PUSH1 0x14 DUP3 ADD SWAP2 POP DUP2 SWAP1 POP SWAP5 SWAP4 POP POP POP POP JUMP JUMPDEST PUSH32 0x4E487B7100000000000000000000000000000000000000000000000000000000 PUSH1 0x0 MSTORE PUSH1 0x12 PUSH1 0x4 MSTORE PUSH1 0x24 PUSH1 0x0 REVERT JUMPDEST PUSH1 0x0 PUSH2 0x5EF DUP3 PUSH2 0x396 JUMP JUMPDEST SWAP2 POP PUSH2 0x5FA DUP4 PUSH2 0x396 JUMP JUMPDEST SWAP3 POP DUP3 PUSH2 0x60A JUMPI PUSH2 0x609 PUSH2 0x5B5 JUMP JUMPDEST JUMPDEST DUP3 DUP3 MOD SWAP1 POP SWAP3 SWAP2 POP POP JUMP JUMPDEST PUSH1 0x0 PUSH1 0x40 DUP3 ADD SWAP1 POP PUSH2 0x62A PUSH1 0x0 DUP4 ADD DUP6 PUSH2 0x3A0 JUMP JUMPDEST PUSH2 0x637 PUSH1 0x20 DUP4 ADD DUP5 PUSH2 0x3A0 JUMP JUMPDEST SWAP4 SWAP3 POP POP POP JUMP JUMPDEST PUSH32 0x4E487B7100000000000000000000000000000000000000000000000000000000 PUSH1 0x0 MSTORE PUSH1 0x11 PUSH1 0x4 MSTORE PUSH1 0x24 PUSH1 0x0 REVERT JUMPDEST PUSH1 0x0 PUSH2 0x678 DUP3 PUSH2 0x396 JUMP JUMPDEST SWAP2 POP PUSH2 0x683 DUP4 PUSH2 0x396 JUMP JUMPDEST SWAP3 POP DUP3 DUP3 MUL PUSH2 0x691 DUP2 PUSH2 0x396 JUMP JUMPDEST SWAP2 POP DUP3 DUP3 DIV DUP5 EQ DUP4 ISZERO OR PUSH2 0x6A8 JUMPI PUSH2 0x6A7 PUSH2 0x63E JUMP JUMPDEST JUMPDEST POP SWAP3 SWAP2 POP POP JUMP INVALID LOG2 PUSH5 0x6970667358 0x22 SLT KECCAK256 DUP16 POP 0xD5 0xE PUSH7 0xD8B67999EBCE15 CREATE2 0xB4 GAS 0xDB LOG4 SAR NUMBER DUP14 0xAB 0xA8 0xD1 0xF9 0xAC LOG3 PUSH20 0x1FB8640F6464736F6C6343000813003300000000 "
    },
    "gasEstimates": {
      "creation": {
        "codeDepositCost": "353000",
        "executionCost": "24659",
        "totalCost": "377659"
      },
      "external": {
        "BET_AMOUNT()": "329",
        "owner()": "2533",
        "randomNumber()": "2473",
        "spin()": "infinite",
        "withdraw()": "infinite"
      },
      "internal": {
        "calculateWinnings(uint256)": "infinite"
      }
    },
    "methodIdentifiers": {
      "BET_AMOUNT()": "3f9326af",
      "owner()": "8da5cb5b",
      "randomNumber()": "ccbac9f5",
      "spin()": "f0acd7d5",
      "withdraw()": "3ccfd60b"
    }
  },
  "storageLayout": {
    "storage": [
      {
        "astId": 3,
        "contract": "Slot.sol:Slot",
        "label": "owner",
        "offset": 0,
        "slot": "0",
        "type": "t_address"
      },
      {
        "astId": 8,
        "contract": "Slot.sol:Slot",
        "label": "randomNumber",
        "offset": 0,
        "slot": "1",
        "type": "t_uint256"
      }
    ],
    "types": {
      "t_address": {
        "encoding": "inplace",
        "label": "address",
        "numberOfBytes": "20"
      },
      "t_uint256": {
        "encoding": "inplace",
        "label": "uint256",
        "numberOfBytes": "32"
      }
    }
  },
  "userdoc": {
    "kind": "user",
    "methods": {},
    "version": 1
  }
}